{
  "contractName": "Attend",
  "abi": [
    {
      "inputs": [],
      "payable": false,
      "stateMutability": "nonpayable",
      "type": "constructor"
    },
    {
      "anonymous": false,
      "inputs": [],
      "name": "Registered",
      "type": "event"
    },
    {
      "anonymous": false,
      "inputs": [],
      "name": "Unregistered",
      "type": "event"
    },
    {
      "constant": false,
      "inputs": [
        {
          "name": "_name",
          "type": "string"
        },
        {
          "name": "_maxAttendance",
          "type": "uint256"
        }
      ],
      "name": "addOrganization",
      "outputs": [],
      "payable": false,
      "stateMutability": "nonpayable",
      "type": "function"
    },
    {
      "constant": false,
      "inputs": [
        {
          "name": "orgId",
          "type": "uint256"
        }
      ],
      "name": "AttendOrganization",
      "outputs": [
        {
          "name": "",
          "type": "uint256"
        }
      ],
      "payable": false,
      "stateMutability": "nonpayable",
      "type": "function"
    },
    {
      "constant": false,
      "inputs": [
        {
          "name": "orgId",
          "type": "uint256"
        }
      ],
      "name": "CancelAttendance",
      "outputs": [
        {
          "name": "",
          "type": "uint256"
        }
      ],
      "payable": false,
      "stateMutability": "nonpayable",
      "type": "function"
    },
    {
      "constant": true,
      "inputs": [
        {
          "name": "orgId",
          "type": "uint256"
        }
      ],
      "name": "getOrganization",
      "outputs": [
        {
          "name": "",
          "type": "string"
        },
        {
          "name": "",
          "type": "uint256"
        },
        {
          "name": "",
          "type": "uint256"
        },
        {
          "name": "",
          "type": "uint256"
        }
      ],
      "payable": false,
      "stateMutability": "view",
      "type": "function"
    },
    {
      "constant": true,
      "inputs": [],
      "name": "getOrganizationCount",
      "outputs": [
        {
          "name": "",
          "type": "uint256"
        }
      ],
      "payable": false,
      "stateMutability": "view",
      "type": "function"
    }
  ],
  "bytecode": "0x608060405234801561001057600080fd5b5060006001819055506109b5806100286000396000f30060806040526004361061006d576000357c0100000000000000000000000000000000000000000000000000000000900463ffffffff1680634526f6901461007257806345ef92281461012d5780635734e5e3146101a0578063b295e0bb146101cb578063e5ebee781461020c575b600080fd5b34801561007e57600080fd5b5061009d6004803603810190808035906020019092919050505061024d565b6040518080602001858152602001848152602001838152602001828103825286818151815260200191508051906020019080838360005b838110156100ef5780820151818401526020810190506100d4565b50505050905090810190601f16801561011c5780820380516001836020036101000a031916815260200191505b509550505050505060405180910390f35b34801561013957600080fd5b5061019e600480360381019080803590602001908201803590602001908080601f0160208091040260200160405190810160405280939291908181526020018383808284378201915050505050509192919290803590602001909291905050506103c8565b005b3480156101ac57600080fd5b506101b5610443565b6040518082815260200191505060405180910390f35b3480156101d757600080fd5b506101f66004803603810190808035906020019092919050505061044d565b6040518082815260200191505060405180910390f35b34801561021857600080fd5b50610237600480360381019080803590602001909291905050506105df565b6040518082815260200191505060405180910390f35b6060600080600080856000806000838152602001908152602001600020600001805460018160011615610100020316600290049050141515156102f8576040517f08c379a000000000000000000000000000000000000000000000000000000000815260040180806020018281038252601c8152602001807f4f7267616e697a6174696f6e20646f6573206e6f742065786973742e0000000081525060200191505060405180910390fd5b6000808881526020019081526020016000209150816000018783600201548460010154838054600181600116156101000203166002900480601f0160208091040260200160405190810160405280929190818152602001828054600181600116156101000203166002900480156103b05780601f10610385576101008083540402835291602001916103b0565b820191906000526020600020905b81548152906001019060200180831161039357829003601f168201915b50505050509350955095509550955050509193509193565b6001600081548092919060010191905055506060604051908101604052808381526020018281526020016000815250600080600154815260200190815260200160002060008201518160000190805190602001906104279291906108e4565b5060208201518160010155604082015181600201559050505050565b6000600154905090565b6000816001151560008083815260200190815260200160002060030160003373ffffffffffffffffffffffffffffffffffffffff1673ffffffffffffffffffffffffffffffffffffffff16815260200190815260200160002060009054906101000a900460ff161515141515610551576040517f08c379a00000000000000000000000000000000000000000000000000000000081526004018080602001828103825260248152602001807f55736572206e6f7420617474656e6465642074686973206f7267616e697a617481526020017f696f6e2e0000000000000000000000000000000000000000000000000000000081525060400191505060405180910390fd5b600080848152602001908152602001600020600201600081548092919060019003919050555060008084815260200190815260200160002060030160003373ffffffffffffffffffffffffffffffffffffffff1673ffffffffffffffffffffffffffffffffffffffff16815260200190815260200160002060006101000a81549060ff021916905550919050565b600081600080600083815260200190815260200160002060000180546001816001161561010002031660029004905014151515610684576040517f08c379a000000000000000000000000000000000000000000000000000000000815260040180806020018281038252601c8152602001807f4f7267616e697a6174696f6e20646f6573206e6f742065786973742e0000000081525060200191505060405180910390fd5b600080828152602001908152602001600020600101546000808381526020019081526020016000206002015410151561074b576040517f08c379a00000000000000000000000000000000000000000000000000000000081526004018080602001828103825260248152602001807f4e6f20736c6f7473206c65667420666f722074686973206f7267616e697a617481526020017f696f6e2e0000000000000000000000000000000000000000000000000000000081525060400191505060405180910390fd5b826000151560008083815260200190815260200160002060030160003373ffffffffffffffffffffffffffffffffffffffff1673ffffffffffffffffffffffffffffffffffffffff16815260200190815260200160002060009054906101000a900460ff16151514151561084d576040517f08c379a00000000000000000000000000000000000000000000000000000000081526004018080602001828103825260288152602001807f5573657220616c726561647920617474656e6465642074686973206f7267616e81526020017f697a6174696f6e2e00000000000000000000000000000000000000000000000081525060400191505060405180910390fd5b600160008086815260200190815260200160002060030160003373ffffffffffffffffffffffffffffffffffffffff1673ffffffffffffffffffffffffffffffffffffffff16815260200190815260200160002060006101000a81548160ff021916908315150217905550600080858152602001908152602001600020600201600081548092919060010191905055505050919050565b828054600181600116156101000203166002900490600052602060002090601f016020900481019282601f1061092557805160ff1916838001178555610953565b82800160010185558215610953579182015b82811115610952578251825591602001919060010190610937565b5b5090506109609190610964565b5090565b61098691905b8082111561098257600081600090555060010161096a565b5090565b905600a165627a7a723058202f84437f415b6171aff032af72b302dff1cb43318fe1471c4bc16eafcaf33e590029",
  "source": "pragma solidity ^0.4.17;\r\n\r\ncontract Attend {\r\n    \r\n    event Registered();\r\n    event Unregistered();\r\n\r\n    struct Organization\r\n    {\r\n        string name;\r\n        uint max_attendance;\r\n        uint attendance_count;\r\n        mapping(address => bool) Attenders;\r\n    }\r\n\r\n    mapping(uint => Organization) private organizations;\r\n    uint private organizationCount;\r\n\r\n    constructor () public {\r\n       organizationCount = 0;\r\n    }\r\n\r\n    modifier organizationExist(uint orgId) {\r\n        require(bytes(organizations[orgId].name).length != 0,\"Organization does not exist.\"); // Check if organization exists\r\n        _;\r\n    }\r\n\r\n    modifier ticketAvailable(uint orgId) {\r\n        require(bytes(organizations[orgId].name).length != 0,\"Organization does not exist.\"); // Check if organization exists\r\n        require(organizations[orgId].attendance_count < organizations[orgId].max_attendance,\"No slots left for this organization.\"); // Check if organization attendance limit reached\r\n        _;\r\n    }\r\n\r\n    modifier notAttended(uint orgId) {\r\n        require(organizations[orgId].Attenders[msg.sender] == false,\"User already attended this organization.\");\r\n        _;\r\n    }\r\n\r\n    modifier attended(uint orgId) {\r\n        require(organizations[orgId].Attenders[msg.sender] == true,\"User not attended this organization.\");\r\n        _;\r\n    }\r\n\r\n    function addOrganization(string memory _name,uint _maxAttendance) public {\r\n        organizationCount++;\r\n        organizations[organizationCount] = Organization(_name,_maxAttendance,0);\r\n    }\r\n\r\n    function AttendOrganization(uint orgId) public ticketAvailable(orgId) notAttended(orgId) returns (uint) {\r\n        organizations[orgId].Attenders[msg.sender] = true;\r\n        organizations[orgId].attendance_count++;\r\n    }\r\n\r\n    function CancelAttendance(uint orgId) public attended(orgId) returns(uint) {\r\n        organizations[orgId].attendance_count--;\r\n        delete organizations[orgId].Attenders[msg.sender];\r\n    }\r\n\r\n    function getOrganization(uint orgId) public view organizationExist(orgId) returns (string memory,uint,uint,uint)\r\n    {\r\n        Organization storage org = organizations[orgId];\r\n        return (org.name,orgId,org.attendance_count,org.max_attendance);\r\n    }\r\n\r\n    function getOrganizationCount() public view returns (uint) {\r\n        return organizationCount;\r\n    }\r\n}",
  "sourcePath": "C:\\Users\\berka\\Documents\\Code\\TicketChain\\contracts\\Attend.sol",
  "compiler": {
    "name": "solc",
    "version": "0.4.24+commit.e67f0147.Emscripten.clang"
  },
  "schemaVersion": "2.0.1",
  "updatedAt": "2018-11-28T23:55:37.647Z"
}