{
  "contractName": "Attend",
  "abi": [
    {
      "constant": true,
      "inputs": [],
      "name": "organizationCount",
      "outputs": [
        {
          "name": "",
          "type": "uint256"
        }
      ],
      "payable": false,
      "stateMutability": "view",
      "type": "function"
    },
    {
      "inputs": [],
      "payable": false,
      "stateMutability": "nonpayable",
      "type": "constructor"
    },
    {
      "anonymous": false,
      "inputs": [],
      "name": "Registered",
      "type": "event"
    },
    {
      "anonymous": false,
      "inputs": [],
      "name": "Unregistered",
      "type": "event"
    },
    {
      "constant": false,
      "inputs": [
        {
          "name": "_name",
          "type": "string"
        },
        {
          "name": "_maxAttendance",
          "type": "uint256"
        }
      ],
      "name": "addOrganization",
      "outputs": [],
      "payable": false,
      "stateMutability": "nonpayable",
      "type": "function"
    },
    {
      "constant": false,
      "inputs": [
        {
          "name": "orgId",
          "type": "uint256"
        }
      ],
      "name": "AttendOrganization",
      "outputs": [
        {
          "name": "",
          "type": "uint256"
        }
      ],
      "payable": false,
      "stateMutability": "nonpayable",
      "type": "function"
    },
    {
      "constant": false,
      "inputs": [
        {
          "name": "orgId",
          "type": "uint256"
        }
      ],
      "name": "CancelAttendance",
      "outputs": [
        {
          "name": "",
          "type": "uint256"
        }
      ],
      "payable": false,
      "stateMutability": "nonpayable",
      "type": "function"
    },
    {
      "constant": true,
      "inputs": [
        {
          "name": "orgId",
          "type": "uint256"
        }
      ],
      "name": "getOrganization",
      "outputs": [
        {
          "name": "",
          "type": "string"
        },
        {
          "name": "",
          "type": "uint256"
        },
        {
          "name": "",
          "type": "uint256"
        }
      ],
      "payable": false,
      "stateMutability": "view",
      "type": "function"
    },
    {
      "constant": true,
      "inputs": [],
      "name": "getOrganizationCount",
      "outputs": [
        {
          "name": "",
          "type": "uint256"
        }
      ],
      "payable": false,
      "stateMutability": "view",
      "type": "function"
    }
  ],
  "bytecode": "0x608060405234801561001057600080fd5b506000600181905550610bda806100286000396000f300608060405260043610610078576000357c0100000000000000000000000000000000000000000000000000000000900463ffffffff1680634526f6901461007d57806345ef9228146100bc5780635734e5e3146100e5578063b295e0bb14610110578063e5ebee781461014d578063f1c621041461018a575b600080fd5b34801561008957600080fd5b506100a4600480360361009f9190810190610840565b6101b5565b6040516100b3939291906109fc565b60405180910390f35b3480156100c857600080fd5b506100e360048036036100de91908101906107ec565b6102f9565b005b3480156100f157600080fd5b506100fa610374565b6040516101079190610aba565b60405180910390f35b34801561011c57600080fd5b5061013760048036036101329190810190610840565b61037e565b6040516101449190610aba565b60405180910390f35b34801561015957600080fd5b50610174600480360361016f9190810190610840565b6104b7565b6040516101819190610aba565b60405180910390f35b34801561019657600080fd5b5061019f6106d7565b6040516101ac9190610aba565b60405180910390f35b606060008060008460008060008381526020019081526020016000206000018054600181600116156101000203166002900490501415151561022c576040517f08c379a000000000000000000000000000000000000000000000000000000000815260040161022390610a9a565b60405180910390fd5b60008087815260200190815260200160002091508160000182600201548360010154828054600181600116156101000203166002900480601f0160208091040260200160405190810160405280929190818152602001828054600181600116156101000203166002900480156102e35780601f106102b8576101008083540402835291602001916102e3565b820191906000526020600020905b8154815290600101906020018083116102c657829003601f168201915b5050505050925094509450945050509193909250565b6001600081548092919060010191905055506060604051908101604052808381526020018281526020016000815250600080600154815260200190815260200160002060008201518160000190805190602001906103589291906106dd565b5060208201518160010155604082015181600201559050505050565b6000600154905090565b6000816001151560008083815260200190815260200160002060030160003373ffffffffffffffffffffffffffffffffffffffff1673ffffffffffffffffffffffffffffffffffffffff16815260200190815260200160002060009054906101000a900460ff161515141515610429576040517f08c379a000000000000000000000000000000000000000000000000000000000815260040161042090610a3a565b60405180910390fd5b600080848152602001908152602001600020600201600081548092919060019003919050555060008084815260200190815260200160002060030160003373ffffffffffffffffffffffffffffffffffffffff1673ffffffffffffffffffffffffffffffffffffffff16815260200190815260200160002060006101000a81549060ff021916905550919050565b600081600080600083815260200190815260200160002060000180546001816001161561010002031660029004905014151515610529576040517f08c379a000000000000000000000000000000000000000000000000000000000815260040161052090610a9a565b60405180910390fd5b6000808281526020019081526020016000206001015460008083815260200190815260200160002060020154101515610597576040517f08c379a000000000000000000000000000000000000000000000000000000000815260040161058e90610a5a565b60405180910390fd5b826000151560008083815260200190815260200160002060030160003373ffffffffffffffffffffffffffffffffffffffff1673ffffffffffffffffffffffffffffffffffffffff16815260200190815260200160002060009054906101000a900460ff161515141515610640576040517f08c379a000000000000000000000000000000000000000000000000000000000815260040161063790610a7a565b60405180910390fd5b600160008086815260200190815260200160002060030160003373ffffffffffffffffffffffffffffffffffffffff1673ffffffffffffffffffffffffffffffffffffffff16815260200190815260200160002060006101000a81548160ff021916908315150217905550600080858152602001908152602001600020600201600081548092919060010191905055505050919050565b60015481565b828054600181600116156101000203166002900490600052602060002090601f016020900481019282601f1061071e57805160ff191683800117855561074c565b8280016001018555821561074c579182015b8281111561074b578251825591602001919060010190610730565b5b509050610759919061075d565b5090565b61077f91905b8082111561077b576000816000905550600101610763565b5090565b90565b600082601f830112151561079557600080fd5b81356107a86107a382610b02565b610ad5565b915080825260208301602083018583830111156107c457600080fd5b6107cf838284610b4d565b50505092915050565b60006107e48235610b43565b905092915050565b600080604083850312156107ff57600080fd5b600083013567ffffffffffffffff81111561081957600080fd5b61082585828601610782565b9250506020610836858286016107d8565b9150509250929050565b60006020828403121561085257600080fd5b6000610860848285016107d8565b91505092915050565b600061087482610b2e565b808452610888816020860160208601610b5c565b61089181610b8f565b602085010191505092915050565b6000602482527f55736572206e6f7420617474656e6465642074686973206f7267616e697a617460208301527f696f6e2e000000000000000000000000000000000000000000000000000000006040830152606082019050919050565b6000602482527f4e6f20736c6f7473206c65667420666f722074686973206f7267616e697a617460208301527f696f6e2e000000000000000000000000000000000000000000000000000000006040830152606082019050919050565b6000602882527f5573657220616c726561647920617474656e6465642074686973206f7267616e60208301527f697a6174696f6e2e0000000000000000000000000000000000000000000000006040830152606082019050919050565b6000601c82527f4f7267616e697a6174696f6e20646f6573206e6f742065786973742e000000006020830152604082019050919050565b6109f681610b39565b82525050565b60006060820190508181036000830152610a168186610869565b9050610a2560208301856109ed565b610a3260408301846109ed565b949350505050565b60006020820190508181036000830152610a538161089f565b9050919050565b60006020820190508181036000830152610a73816108fc565b9050919050565b60006020820190508181036000830152610a9381610959565b9050919050565b60006020820190508181036000830152610ab3816109b6565b9050919050565b6000602082019050610acf60008301846109ed565b92915050565b6000604051905081810181811067ffffffffffffffff82111715610af857600080fd5b8060405250919050565b600067ffffffffffffffff821115610b1957600080fd5b601f19601f8301169050602081019050919050565b600081519050919050565b6000819050919050565b6000819050919050565b82818337600083830152505050565b60005b83811015610b7a578082015181840152602081019050610b5f565b83811115610b89576000848401525b50505050565b6000601f19601f83011690509190505600a265627a7a723058209a6014a9901d21766a1f9c94ba0e9b88283117ba6986ef2cd0108cfc07ac85086c6578706572696d656e74616cf50037",
  "source": "pragma solidity ^0.4.17;\r\npragma experimental ABIEncoderV2;\r\n\r\ncontract Attend {\r\n    \r\n    event Registered();\r\n    event Unregistered();\r\n\r\n    struct Organization\r\n    {\r\n        string name;\r\n        uint max_attendance;\r\n        uint attendance_count;\r\n        mapping(address => bool) Attenders;\r\n    }\r\n\r\n    mapping(uint => Organization) private organizations;\r\n    uint public organizationCount;\r\n\r\n    constructor () public {\r\n       organizationCount = 0;\r\n    }\r\n\r\n    modifier organizationExist(uint orgId) {\r\n        require(bytes(organizations[orgId].name).length != 0,\"Organization does not exist.\"); // Check if organization exists\r\n        _;\r\n    }\r\n\r\n    modifier ticketAvailable(uint orgId) {\r\n        require(bytes(organizations[orgId].name).length != 0,\"Organization does not exist.\"); // Check if organization exists\r\n        require(organizations[orgId].attendance_count < organizations[orgId].max_attendance,\"No slots left for this organization.\"); // Check if organization attendance limit reached\r\n        _;\r\n    }\r\n\r\n    modifier notAttended(uint orgId) {\r\n        require(organizations[orgId].Attenders[msg.sender] == false,\"User already attended this organization.\");\r\n        _;\r\n    }\r\n\r\n    modifier attended(uint orgId) {\r\n        require(organizations[orgId].Attenders[msg.sender] == true,\"User not attended this organization.\");\r\n        _;\r\n    }\r\n\r\n    function addOrganization(string _name,uint _maxAttendance) public {\r\n        organizationCount++;\r\n        organizations[organizationCount] = Organization(_name,_maxAttendance,0);\r\n    }\r\n\r\n    function AttendOrganization(uint orgId) public ticketAvailable(orgId) notAttended(orgId) returns (uint) {\r\n        organizations[orgId].Attenders[msg.sender] = true;\r\n        organizations[orgId].attendance_count++;\r\n    }\r\n\r\n    function CancelAttendance(uint orgId) public attended(orgId) returns(uint) {\r\n        organizations[orgId].attendance_count--;\r\n        delete organizations[orgId].Attenders[msg.sender];\r\n    }\r\n\r\n    function getOrganization(uint orgId) public view organizationExist(orgId) returns (string,uint,uint)\r\n    {\r\n        Organization storage org = organizations[orgId];\r\n        return (org.name,org.attendance_count,org.max_attendance);\r\n    }\r\n\r\n    function getOrganizationCount() public view returns (uint) {\r\n        return organizationCount;\r\n    }\r\n}",
  "sourcePath": "C:\\Users\\berka\\Documents\\Code\\TicketChain\\contracts\\Attend.sol",
  "compiler": {
    "name": "solc",
    "version": "0.4.24+commit.e67f0147.Emscripten.clang"
  },
  "schemaVersion": "2.0.1",
  "updatedAt": "2018-11-23T01:42:50.122Z"
}